:100000000C9443220C9474220C9474220C94742249
:100010000C9474220C9474220C9474220C94742208
:100020000C9474220C9474220C9474220C947422F8
:100030000C9474220C9490DA0C9474220C94742214
:100040000C9474220C9405750C9474220C947422F4
:100050000C9474220C9474220C94D9860C9490D431
:100060000C9474220C945E290C9474220C947422C7
:100070000C9474220C9474220C9474220C947422A8
:100080000C9474220C9474220C9474220C94742298
:100090000C9474220C9474220C9474220C94742288
:1000A0000C9474220C9474220C9474220C94742278
:1000B0000C9474220C9474220C9474220C94742268
:1000C0000C9474220C9474220C9474220C94742258
:1000D0000C9474220C9474220C9474220C94742248
:1000E0000C9474222B873A87568765877F878E8783
:1000F000A887AC87B4D5B9D5BED5C8D5D2D54BD68F
:10010000DCD5E4D5ECD5F6D500D60AD619D623D65B
:100110004BD62DD637D641D66DD670D65FD663D6A0
:1001200069D6A7D674D678D67ED682D686D68CD611
:1001300090D694D6A7D69AD69ED6A2D6084AD73BB2
:100140003BCE016E84BCBFFDC12F3D6C74319ABDA6
:1001500056833DDA3D00C77F11BED9E4BB4C3E91CA
:100160006BAAAABE000000803F05A84CCDB2D44EB9
:10017000B93836A9020C50B9918688083CA6AAAABB
:100180002ABE000000803F0048617264636F6465AE
:10019000642044656661756C742053657474696E7F
:1001A0006773204C6F616465640053746F7265649B
:1001B0002073657474696E67732072657472696503
:1001C0007665640053657474696E67732053746F49
:1001D000726564006563686F3A0053544F50504530
:1001E000442E20005072696E7465722073746F70B3
:1001F0007065642064756520746F206572726F721B
:10020000732E2046697820746865206572726F725B
:1002100020616E6420757365204D39393920746F03
:1002200020726573746172742E202854656D706538
:100230007261747572652069732072657365742EBE
:10024000205365742069742061667465722072653C
:100250007374617274696E6729004B494C4C454454
:100260002E20005072696E7465722068616C74652E
:10027000642E206B696C6C28292063616C6C65644A
:1002800021006F6B00526573656E643A2000220096
:10029000556E6B6E6F776E20636F6D6D616E643A35
:1002A0002022007A5F6D61783A20007A5F6D696E76
:1002B0003A2000795F6D61783A2000795F6D696E50
:1002C0003A2000785F6D61783A2000785F6D696E42
:1002D0003A20005A3A00593A0020436F756E742054
:1002E000583A2000453A005A3A00593A00583A0024
:1002F0004649524D574152455F4E414D453A4D6139
:10030000726C696E2056313B20537072696E746551
:10031000722F6772626C206D617368757020666FF2
:10032000722067656E36204649524D574152455FEF
:1003300055524C3A687474703A2F2F7777772E6D38
:10034000656E64656C2D70617274732E636F6D20C1
:1003500050524F544F434F4C5F56455253494F4EA6
:100360003A312E30204D414348494E455F54595053
:10037000453A42434E33442B204558545255444548
:10038000525F434F554E543A310A0042656420642F
:100390006F6E652E0020423A0020453A00543A0024
:1003A0004265642048656174696E672E0048656126
:1003B00074696E6720646F6E652E0020573A0020C6
:1003C000453A00543A0048656174696E672E2E2ED6
:1003D000002042403A0020403A00202F0020423ABC
:1003E00000202F006F6B20543A002569206D696E44
:1003F0002C2025692073656300456E642066696C56
:1004000065206C69737400426567696E2066696C6B
:1004100065206C697374004E6F206D6F76652E00D9
:10042000526573756D696E67207072696E740057DE
:1004300061697420666F7220757365722E2E2E00AE
:10044000536C6565702E2E2E00256920686F7572BD
:1004500073202569206D696E7574657300446F6E35
:1004600065207072696E74696E672066696C6500DC
:1004700053544F505045442E20005072696E74659D
:10048000722073746F707065642064756520746F7A
:10049000206572726F72732E2046697820746865C9
:1004A000206572726F7220616E6420757365204DD5
:1004B00039393920746F20726573746172742E201B
:1004C0002854656D7065726174757265206973205A
:1004D00072657365742E205365742069742061669B
:1004E0007465722072657374617274696E67290035
:1004F0006F6B004E6F204C696E65204E756D6265A6
:1005000072207769746820636865636B73756D2CFE
:10051000204C617374204C696E653A20004E6F2048
:10052000436865636B73756D2077697468206C69C7
:100530006E65206E756D6265722C204C617374203F
:100540004C696E653A2000636865636B73756D2056
:100550006D69736D617463682C204C617374204CF9
:10056000696E653A20004C696E65204E756D626556
:1005700072206973206E6F74204C617374204C6913
:100580006E65204E756D6265722B312C204C617347
:1005900074204C696E653A20004D31313000446F53
:1005A0006E6520736176696E672066696C652E00E2
:1005B0006F6B004D3239002020506C616E6E657299
:1005C00042756666657242797465733A200020460A
:1005D000726565204D656D6F72793A20004E6F76B9
:1005E000203134203230313600436F6D70696C65D4
:1005F000643A2000286E6F6E652C20646566617514
:100600006C7420636F6E6669672900207C204175D9
:1006100074686F723A20004E6F7620313420323089
:1006200031362031323A32313A303000204C617369
:100630007420557064617465643A2000312E302E48
:1006400030004D61726C696E200020536F667477C4
:100650006172652052657365740020576174636828
:10066000646F67205265736574002042726F776E05
:10067000206F757420526573657400204578746529
:10068000726E616C20526573657400506F7765728D
:100690005570007374617274002200656E71756527
:1006A000696E672022002200656E717565696E674C
:1006B00020220001FFFF0000A0400000A040000039
:1006C000803F00007C430000484300004843000096
:1006D0007C43000000000000000000007C4300009C
:1006E00048430000484300000000000000000000F4
:1006F00000006563686F3A004572726F723A007C61
:100700003C3E5E2B3D3F2F5B5D3B2C2A225C004D27
:10071000383420582059205A20450043616E6E6FAE
:100720007420656E746572207375626469723A2014
:10073000004D3234004D3233202573006175746FE3
:1007400025692E67006572726F722077726974690D
:100750006E6720746F2066696C65004E6F7420535D
:1007600044207072696E74696E67002F00534420D4
:100770007072696E74696E67206279746520002EEC
:100780000044656C6574696F6E206661696C6564B0
:100790002C2046696C653A200046696C65206465CA
:1007A0006C657465643A002E006F70656E2066613A
:1007B000696C65642C2046696C653A200057726943
:1007C00074696E6720746F2066696C653A20002E2C
:1007D000006F70656E206661696C65642C204669E7
:1007E0006C653A20002E006F70656E206661696C42
:1007F00065642C2046696C653A200046696C65206A
:1008000073656C6563746564002053697A653A208A
:100810000046696C65206F70656E65643A20002E35
:10082000006F70656E206661696C65642C20466996
:100830006C653A200053442063617264206F6B0042
:100840006F70656E526F6F74206661696C656400CD
:10085000766F6C756D652E696E6974206661696C62
:10086000656400534420696E6974206661696C0098
:100870006563686F3A004572726F723A0020746F58
:100880006F206C6F6E6720657874727573696F6E18
:100890002070726576656E7465640020636F6C64A9
:1008A00020657874727573696F6E207072657665F5
:1008B0006E746564006563686F3A00656E64737496
:1008C0006F7073206869743A205A00205A3A0065A4
:1008D0006E6473746F7073206869743A20590020D5
:1008E000593A00656E6473746F7073206869743A66
:1008F00020580020583A00656E6473746F7073203E
:100900006869743A200024F4D43050C38E20C2A207
:100910004017828B7011127A910D816CD90AA861EF
:10092000E108C7586607615143061E4B5D05C14586
:10093000A7041A411104093D980371393103403667
:10094000DB0265339102D4305402802E1D02632CE9
:10095000EE01752AC501B028A001102781018F255D
:1009600064012B244B01E0223401AC211F018D20B6
:100970000D01801FFC00841EED00971DDF00B81CD8
:10098000D200E61BC600201BBC00641AB200B219DC
:10099000A8000A19A0006A189900D1179100401701
:1009A0008B00B516840031167E00B31579003A1518
:1009B0007300C7146F0058146A00EE1366008813A2
:1009C000630025135E00C7125B006C1257001512FE
:1009D0005400C111510070114F0021114B00D6106D
:1009E00049008D1047004610440002104200C00F1D
:1009F0004000800F3E00420F3C00060F3B00CB0E34
:100A00003800930E37005C0E3500270E3400F30DCE
:100A10003200C10D3100900D3000600D2E00320DFE
:100A20002D00050D2C00D90C2B00AE0C2900850CD7
:100A300029005C0C2700350C27000E0C2600E80B63
:100A40002400C40B2400A00B23007D0B23005A0BB1
:100A50002100390B2100180B2000F80A1F00D90AC9
:100A60001E00BB0A1E009D0A1D00800A1D00630AAD
:100A70001C00470A1B002C0A1B00110A1A00F70968
:100A80001A00DD091900C4091900AB0919009209FF
:100A900017007B091800630917004C091600360976
:100AA0001600200916000A091500F5081500E008CF
:100AB0001400CC081400B8081400A408140090080E
:100AC00013007D0812006B08130058081200460836
:100AD0001200340811002308110012081100010847
:100AE0001100F0071000E0071000D0071000C00749
:100AF0001000B0070F00A107100091070E00830738
:100B00000F0074070F0065070E0057070E00490716
:100B10000E003B070D002E070E0020070D001307E7
:100B20000D0006070D00F9060C00ED060D00E006AD
:100B30000C00D4060C00C8060C00BC060C00B00665
:100B40000C00A4060B0099060C008D060B00820613
:100B50000B0077060B006C060B0061060A005706B7
:100B60000B004C060A0042060A0038060A002E0650
:100B70000A0024060A001A060A00100609000706E1
:100B80000A00FD050900F4050900EB050900E2056E
:100B90000900D9050900D0050900C7050900BE05EF
:100BA0000900B5050800AD050800A50509009C056C
:100BB0000800940508008C050800840508007C05E1
:100BC0000800740508006C050700650508005D0550
:100BD0000700560508004E050700470507004005B9
:100BE000080038050700310507002A05070023051E
:100BF00007001C050600160507000F05070008057D
:100C0000060002050700FB040600F5040700EE04D9
:100C10000600E8040600E2040700DB040600D50431
:100C20000600CF040600C9040600C3040600BD0484
:100C30000600B7040600B1040500AC040600A604D3
:100C40000600A00405009B0406009504050090041E
:100C500006008A04050085040500800406007A0465
:100C6000050075040500700405006B0405006604AA
:100C70000500610405005C040500570405005204EA
:100C800005004D04050048040500430405003E042A
:100C900004003A04050035040500300404002C0467
:100CA000050027040400230405001E0404001A04A0
:100CB000040016040500110404000D0404000904D6
:100CC00005000404040000040400FC030400F8030D
:100CD0000400F4030400F0030400EC030400E80340
:100CE0000400E4030400E0030400DC030400D80370
:100CF0000400D4030400D0030400CC030400C803A0
:100D00000300C503030024F404D9201BC40C5C0EAB
:100D10009804C4095F0265077101F405F900FB043A
:100D2000B30048048700C10369005803550003035A
:100D30004500BE023A008402310053022A00290213
:100D4000250004022000E4011C00C8011900AF01C5
:100D50001700980114008401130071011000610153
:100D6000100051010E0043010D0036010B002B0154
:100D70000B0020010B00150109000C010900030103
:100D80000800FB000800F3000800EB000700E40087
:100D90000600DE000600D8000600D2000600CC00E7
:100DA0000500C7000500C2000500BD000400B90031
:100DB0000400B5000400B1000400AD000400A90067
:100DC0000400A5000300A20003009F0004009B0094
:100DD00003009800030095000200930003009000B8
:100DE00003008D0002008B000300880002008600D3
:100DF000020084000300810002007F0002007D00E9
:100E000002007B00020079000200770001007600FA
:100E100002007400020072000100710002006F0005
:100E200002006D0001006C0002006A000100690010
:100E30000200670001006600010065000100640017
:100E400002006200010061000100600001005F001B
:100E500002005D0001005C0001005B0001005A001F
:100E60000100590001005800010057000100560020
:100E70000100550001005400010053000000530020
:100E800001005200010051000100500001004F001C
:100E900001004E0000004E0001004D0001004C001A
:100EA00001004B0000004B0001004A000100490016
:100EB0000100480000004800010047000100460012
:100EC000000046000100450000004500010044000C
:100ED0000100430000004300010042000000420006
:100EE00001004100000041000100400001003F00FE
:100EF00000003F0001003E0000003E0001003D00F8
:100F000000003D0001003C0000003C0000003C00EF
:100F100001003B0000003B0001003A0000003A00E5
:100F200001003900000039000100380000003800DD
:100F300000003800010037000000370001003600D3
:100F400000003600000036000100350000003500CA
:100F500000003500010034000000340000003400BF
:100F600001003300000033000000330001003200B4
:100F700000003200000032000100310000003100AA
:100F8000000031000100300000003000000030009F
:100F900001002F0000002F0000002F0000002F0094
:100FA00001002E0000002E0000002E0001002D0088
:100FB00000002D0000002D0000002D0001002C007D
:100FC00000002C0000002C0000002C0001002B0071
:100FD00000002B0000002B0000002B0001002A0065
:100FE00000002A0000002A0000002A000100290059
:100FF000000029000000290000002900000029004D
:10100000010028000000280000002800000028003F
:101010000000280001002700000027000000270032
:101020000000270000002700010026000000260025
:101030000000260000002600000026000100250018
:10104000000025000000250000002500000025000C
:1010500000002500010024000000240000002400FE
:1010600000002400000024000100230000002300F1
:1010700000002300000023000000230000002300E4
:1010800000002300010022000000220000002200D6
:1010900000002200000022000000220001002100C8
:1010A00000002100000021000000210000002100BC
:1010B00000002100000021000100200000002000AD
:1010C00000002000000020000000200000002000A0
:1010D000000020000000200001001F0000001F0091
:1010E00000001F0000001F0000001F0000001F0084
:1010F00000001F0001001E0000001E0000001E0076
:1011000000001E0000006563686F3A004572723A85
:10111000204D494E54454D50204245440054656D84
:1011200070657261747572652068656174656420AC
:10113000626564207377697463686564206F6666AE
:101140002E204D494E54454D502074726967676595
:10115000726564202121004572723A204D41585435
:10116000454D50204245440054656D706572617470
:1011700075726520686561746564206265642073BA
:1011800077697463686564206F66662E204D4158E8
:1011900054454D50207472696767657265642021FB
:1011A00021004572723A2045787472756465724DFB
:1011B000494E54454D50003A204578747275646527
:1011C00072207377697463686564206F66662E2089
:1011D0004D494E54454D502074726967676572657C
:1011E000642021004572723A2045787472756465F6
:1011F000724D415854454D50003A204578747275EF
:10120000646572207377697463686564206F6666CD
:101210002E204D415854454D5020747269676765C2
:10122000726564202100202D20496E76616C69640E
:10123000206578747275646572206E756D62657272
:10124000202100504944204175746F74756E6520EB
:1012500066696E69736865642120507574207468CE
:1012600065204B702C204B6920616E64204B6420FC
:10127000636F6E7374616E747320696E746F204354
:101280006F6E66696775726174696F6E2E68005063
:101290004944204175746F74756E65206661696C90
:1012A0006564212074696D656F75740020403A0093
:1012B0006F6B20543A006F6B20423A005049442033
:1012C0004175746F74756E65206661696C65642123
:1012D0002054656D706572617475726520746F6FEE
:1012E000206869676800204B643A2000204B693A07
:1012F0002000204B703A200020436C61736963200A
:1013000050494420002054753A2000204B753A2063
:1013100000206D61783A2000206D696E3A2000202F
:10132000643A200020626961733A20004572726F4E
:10133000723A0070012C0190012701B0012201C016
:10134000011D01F00118011002130130020E0160AD
:1013500002090190020401C002FF000003FA0040EC
:1013600003F5008003F000D003EB002004E60070DA
:1013700004E100E004DC004005D700C005D20040D5
:1013800006CD00D006C8008007C3003008BE00F0BC
:1013900008B900C009B400B00AAF00B00BAA00D071
:1013A0000CA500000EA000500F9B00C0109600502E
:1013B00012910000148C00C0158700B0178200B095
:1013C000197D00D01B7800001E730040206E009035
:1013D000226900F024640040275F0090295A00E051
:1013E0002B5500102E500020304B0010324600E0EC
:1013F00033410090353C001037370070383200A080
:10140000392D00B03A2800A03B2300603C1E00109C
:101410003D1900903D1400103E0F00703E0A00C0C0
:101420003E0500003F0000436172642072656D6FED
:10143000766564004361726420696E7365727465D9
:101440006400B02000B02000B02000B020002D2D9E
:101450003A2D2D00466C6F7700466C6F7700466121
:101460006E2073706565640046616E2073706565FB
:10147000640042656400426564004E6F7A7A6C6570
:10148000004E6F7A7A6C6500537065656400537026
:10149000656564004D61696E0050726568656174D0
:1014A0002046696C61466C657800507265686561BC
:1014B00074204C6179427269636B00507265686593
:1014C0006174204C6179576F6F6400507265686574
:1014D0006174205056410050726568656174204EF9
:1014E000796C6F6E0050726568656174204142537B
:1014F000005072656865617420504C4100507265FF
:101500007061726500580059005A00457874727510
:10151000646572004578747275646572004D6F760B
:1015200065205A004D6F76652059004D6F76652015
:1015300058004D6F76652041786973004D6F766570
:1015400020302E316D6D004D6F766520316D6D0050
:101550004D6F76652031306D6D005072657061722F
:1015600065004D6F7665204178697300436F6F6C3D
:10157000646F776E00507265686561740047323839
:10158000004175746F20486F6D65004D383400441C
:10159000697361626C652053746570706572730065
:1015A0004D61696E0053746F7265206D656D6F7269
:1015B000790042656400426564004E6F7A7A6C651A
:1015C000004E6F7A7A6C650046616E2073706565B7
:1015D000640046616E2073706565640054656D70CB
:1015E000657261747572650053746F7265206D6504
:1015F0006D6F72790042656400426564004E6F7AD7
:101600007A6C65004E6F7A7A6C650046616E207365
:10161000706565640046616E207370656564005492
:10162000656D70657261747572650050726568658C
:1016300061742041425320436F6E660050726568AA
:1016400065617420504C4120436F6E6600504944E0
:101650002D43005049442D43005049442D4400502F
:1016600049442D44005049442D49005049442D49D6
:10167000005049442D50005049442D500020022074
:1016800046616374002002204661637400200220DA
:101690004D6178002002204D6178002002204D69C4
:1016A0006E002002204D696E004F6666004F6E206E
:1016B000004F6666004F6E20004175746F74656D53
:1016C000700046616E2073706565640046616E202F
:1016D00073706565640042656400426564004E6F26
:1016E0007A7A6C65004E6F7A7A6C6500436F6E741F
:1016F000726F6C0044697361626C65004D616E7558
:10170000616C2059004D616E75616C2059004D610E
:101710006E75616C2058004D616E75616C205800CB
:10172000436972636C6573004D6F74696F6E004539
:1017300073746570732F6D6D004573746570732FCE
:101740006D6D005A73746570732F6D6D005A7374EC
:101750006570732F6D6D005973746570732F6D6DA7
:10176000005973746570732F6D6D005873746570D4
:10177000732F6D6D005873746570732F6D6D00411C
:101780002D7265747261637400412D7265747261AB
:10179000637400416D6178206500416D617820655A
:1017A00000416D6178207A00416D6178207A0041B6
:1017B0006D6178207900416D6178207900416D611B
:1017C00078207800416D61782078005654726176F7
:1017D000206D696E005654726176206D696E0056F8
:1017E0006D696E00566D696E00566D6178206500FA
:1017F000566D6178206500566D6178207A00566DCF
:101800006178207A00566D6178207900566D617894
:10181000207900566D6178207800566D61782078C7
:101820000056652D6A65726B0056652D6A65726B90
:1018300000567A2D6A65726B00567A2D6A65726B56
:10184000005678792D6A65726B005678792D6A6535
:10185000726B0048797374657265736973004163D4
:1018600063656C00416363656C00436F6E74726FF7
:101870006C00526573746F7265204661696C7361A8
:101880006665004C6F6164206D656D6F7279005301
:10189000746F7265206D656D6F7279004D6F74693C
:1018A0006F6E0054656D7065726174757265004D80
:1018B00061696E004D383420582059205A20450067
:1018C0004D3234004D323320257300F92E2E004D59
:1018D00061696E004E6F2043617264005072696EE0
:1018E000742066726F6D2053440053746F702050E3
:1018F00072696E7400526573756D65205072696E01
:1019000074005061757365205072696E7400436F86
:101910006E74726F6C005072657061726500547500
:101920006E6500496E666F2073637265656E0000B8
:10193000060900FE070199032B20FFFE08FE07FEA3
:10194000000000060000010707060200808080807A
:10195000800080030303060104A0A0A0050707067A
:1019600000005050F850F8505005070706000020BE
:1019700070A07028702005070706000048A85020B6
:1019800050A89005070706000040A0A040A8906856
:10199000010303060204808080030707060100207C
:1019A00040808080402003070706010080402020FF
:1019B0002040800505050600018850F8508805057F
:1019C000050600012020F820200303030601FF6024
:1019D0004080050101060003F80303030601FF40F0
:1019E000E040050707060000080810204080800539
:1019F0000707060000205088888850200507070642
:101A000000002060A0202020F805070706000070D5
:101A10008808304080F8050707060000F8081030F5
:101A200008887005070706000010305090F8101065
:101A3000050707060000F880B0C80888700507078A
:101A4000060000304080B0C8887005070706000017
:101A5000F80810102040400507070600007088882D
:101A6000708888700507070600007088986808105D
:101A7000600307070601FF40E0400040E040030725
:101A8000070601FF40E040006040800407070601B0
:101A90000010204080402010050303060002F800DB
:101AA000F804070706010080402010204080050749
:101AB0000706000070881020200020050707060098
:101AC00000708898A8B080700507070600002050B5
:101AD0008888F88888050707060000F0484870489D
:101AE00048F0050707060000708880808088700530
:101AF0000707060000F04848484848F00507070671
:101B00000000F88080F08080F8050707060000F8E4
:101B10008080F08080800507070600007088808044
:101B2000988870050707060000888888F8888888E4
:101B3000030707060100E04040404040E00507077A
:101B4000060000381010101090600507070600000E
:101B50008890A0C0A09088050707060000808080BC
:101B6000808080F80507070600008888D8A8888844
:101B7000880507070600008888C8A8988888050790
:101B800007060000708888888888700507070600A7
:101B900000F08888F08080800508080600FF7088C3
:101BA000888888A87008050707060000F08888F074
:101BB000A09088050707060000708880700888706C
:101BC000050707060000F820202020202005070731
:101BD0000600008888888888887005070706000046
:101BE000888888505050200507070600008888889C
:101BF000A8A8D888050707060000888850205088C4
:101C00008805070706000088885020202020050747
:101C100007060000F80810204080F80307070601B7
:101C200000E08080808080E005070706000080805B
:101C30004020100808030707060100E020202020AC
:101C400020E005030306000420508805010106007A
:101C5000FFF80202020602068040050505060000A4
:101C600070087888780507070600008080B0C8886B
:101C7000C8B0050505060000708880887005070754
:101C800006000008086898889868050505060000A1
:101C90007088F88070050707060000304840F04063
:101CA00040400507070600FE788888780888700598
:101CB00007070600008080B0C888888803070706E9
:101CC00001004000C0404040E00409090601FE1048
:101CD000003010101090906005070706000080800B
:101CE0008890E09088030707060100C0404040400C
:101CF00040E0050505060000D0A8A8A88805050550
:101D0000060000B0C88888880505050600007088B0
:101D10008888700507070600FEB0C888C8B08080B4
:101D20000507070600FE68988898680808050505F5
:101D3000060000B0C88080800505050600007080A0
:101D40007008F00507070600004040F040404830AA
:101D500005050506000088888898680505050600C1
:101D60000088885050200505050600008888A8A82E
:101D70005005050506000088502050880507070615
:101D800000FE88889868088870050505060000F838
:101D9000102040F8040707060100304020C0204012
:101DA0003001070706020080808080808080040761
:101DB00007060100C02040304020C0050303060094
:101DC0000448A8900000000100000000000100008D
:101DD0000000000100000000000100000000000100
:101DE00000000000000100000000000100000000F1
:101DF00000010000000000010000000000010000E0
:101E000000000001000000000001000000000001CF
:101E100000000000000100000000000100000000C0
:101E200000010000000000010000000000010000AF
:101E3000000000010000000000010000000000019F
:101E40000000000000010000000000010000000090
:101E5000000100000000000100000000000100007F
:101E6000000000010000000000010000000000016F
:101E70000000000000010000000000010000000060
:101E8000000100000000000100000000000600004A
:101E90000107070602008000808080808005070718
:101EA0000600FF2078A0A0A0782005070706000004
:101EB000304840E04048B0050505060000887050F5
:101EC00070880508080600FF88885020F820202028
:101ED00001070706020080808000808080050808D6
:101EE0000600FF7080E09048380870030101060189
:101EF00007A00507070600007088A8C8A888700416
:101F000006060601017090B05000F00605050600B7
:101F1000002448904824040202060102F010040143
:101F200001060103F00507070600007088E8C8C82D
:101F30008870050101060007F80303030601044049
:101F4000A0400506060600002020F82020F8040521
:101F50000506010360902040F0040505060103E03A
:101F6000106010E002020206020640800506060626
:101F700000FF888888C8B08005070706000078E859
:101F8000E8682828280101010602038002020206EF
:101F900002FE408003050506010340C04040E00406
:101FA00006060601016090906000F0060505060037
:101FB0000090482448900609090600FF40C04040B0
:101FC000E40C143C040609090600FF40C04040E848
:101FD0001404081C0509090600FFC0204020C81889
:101FE0002878080507070600002000202040887098
:101FF0000508080600004020708888F888880508D1
:10200000080600001020708888F8888805080806EF
:1020100000002050708888F88888050808060000AD
:1020200048B0708888F888880508080600005000C5
:10203000708888F888880508080600002050708895
:1020400088F888880607070600003C50909CF090AE
:102050009C0509090600FE708880808088702040F9
:1020600005080806000040F88080F08080F8050828
:102070000806000010F88080F08080F80508080647
:10208000000020F88080F08080F805080806000035
:1020900050F88080F08080F8030808060100804036
:1020A000E040404040E00308080601002040E040D6
:1020B000404040E003080806010040A0E0404040E6
:1020C00040E0030808060100A000E040404040E076
:1020D000050707060000F04848E84848F0050808EA
:1020E000060000285088C8A89888880508080600B7
:1020F0000040207088888888700508080600001055
:1021000020708888888870050808060000205070B4
:10211000888888887005080806000028507088881C
:102120008888700508080600005000708888888834
:102130007005050506000088502050880507070631
:102140000000709898A8C8C87005080806000040EC
:102150002088888888887005080806000010208874
:102160008888888870050808060000205000888844
:1021700088887005080806000050008888888888CC
:1021800070050808060000102088885020202005CF
:10219000070706000080F088F080808005070706AA
:1021A0000000708890A09088B005080806000040E4
:1021B00020007008788878050808060000102000C4
:1021C000700878887805080806000020500070081C
:1021D000788878050808060000285000700878887C
:1021E0007805070706000050007008788878050811
:1021F000080600002050207008788878060505063B
:10220000000078147C907C0507070600FE7088802B
:10221000887020400508080600004020007088F8FB
:1022200080700508080600001020007088F8807093
:102230000508080600002050007088F88070050727
:102240000706000050007088F88070030808060137
:1022500000804000C0404040E00308080601004004
:102260008000C0404040E003080806010040A00094
:10227000C0404040E0060A0A0600FEA4A800FC8414
:1022800080808084FC060A0A0600FE549400FC84C8
:1022900004040484FC050808060000285000B0C8A7
:1022A0008888880508080600004020007088888813
:1022B00070040A0A0602FE30408090909090909040
:1022C00090040A0A0600FEC0201090909090909012
:1022D00090060707060001448C8C8480403C06076A
:1022E0000706000188C4C4840408F005050506003B
:1022F000012000F8002005080806000040F0C8880A
:1023000088987810050808060000E0F88888888812
:1023100088F80505050600012030F830200508087A
:102320000600002070F820202020E00509090600A2
:10233000FF2070A8A8B8888850200509090600FF6A
:10234000E080C0B0A8A83028280509090600FFF8D9
:10235000A88888888888A8F8050A0A0600FE205000
:1023600050505088A8A8887000060900FE06018910
:1023700002FE20FFFE07FE06FE0000000600070129
:1023800006060602008080808000800303030601A9
:1023900003A0A0A00507070600FF5050F850F85012
:1023A000500509090600FE2070A8A07028A870201A
:1023B0000608080600FF40A84810204854080507F2
:1023C000070600FF60909060989068010303060282
:1023D000038080800207070602FF408080808080A3
:1023E000400207070602FF8040404040408005054C
:1023F000050600008850F8508805050506000020F5
:1024000020F820200204040602FEC040408005019E
:1024100001060002F8020202060200C0C00406061D
:1024200006010010102040808004060606010060AE
:10243000909090906003060606010040C040404026
:10244000E00406060601006090102040F004060635
:10245000060100F020601010E005060606000010DE
:10246000305090F810040606060100F080E01010CD
:10247000E00406060601006080E090906004060615
:10248000060100F01010204040040606060100601E
:1024900090609090600406060601006090907010B5
:1024A00060020505060200C0C000C0C002070706A2
:1024B00002FEC0C000C040408005050506000018AF
:1024C00060806018050303060001F800F8050505A3
:1024D000060000C0300830C0040707060100609005
:1024E00010604000400506060600007090A8B0800D
:1024F00070050606060000205088F8888805060644
:10250000060000F088F08888F004060606010060E6
:102510009080809060040606060100E09090909004
:10252000E0040606060100F080E08080F004060664
:10253000060100F080E0808080040606060100604D
:102540009080B090600406060601009090F0909094
:1025500090030606060100E040404040E005060604
:102560000600003810101090600406060601009066
:10257000A0C0A090900406060601008080808080A4
:10258000F005060606000088D8A8A8888804060674
:1025900006010090D0B090909005060606000070ED
:1025A0008888888870040606060100E09090E08024
:1025B000800407070601FF609090D0B06010040609
:1025C00006060100E09090E09090040606060100E7
:1025D000609040209060050606060000F82020204C
:1025E000202004060606010090909090906004065A
:1025F00006060100909090F0606005060606000057
:102600008888A8A8D88805060606000088502020DB
:102610005088050606060000888850202020040601
:1026200006060100F010204080F0030606060100B7
:10263000E080808080E00406060601008080402063
:102640001010030606060100E020202020E005030C
:10265000030600032050880501010600FEF802026F
:102660000206020480400404040601007090907089
:102670000406060601008080E09090E00404040651
:102680000100708080700406060601001010709032
:10269000907004040406010060B0C07004060606D1
:1026A0000100205040E040400406060601FE609014
:1026B000907010600406060601008080E090909003
:1026C0000306060601004000C04040E0030808067B
:1026D00001FE200060202020A04004060606010024
:1026E0008080A0C0A090030606060100C0404040C4
:1026F00040E0050404060000D0A8A88804040406ED
:102700000100E09090900404040601006090906045
:102710000406060601FEE09090E0808004060606AE
:1027200001FE709090701010040404060100A0D007
:10273000808004040406010070C030E00406060630
:1027400001004040E0405020040404060100909045
:102750009070040404060100909060600504040673
:10276000000088A8A850040404060100906060904E
:102770000406060601FE9090907090600404040622
:102780000100F02040F003070706010020404080D0
:102790004040200107070602FF8080808080808003
:1027A00003070706010080404020404080040202E9
:1027B00006010350A0FFFFFFFFFFFFFFFFFFFFFF2A
:1027C000FFFFFFFFFFFFFFFFFFFFFFFFFFFFFFFF19
:1027D000FFFFFFFFFFFF00000006000701060606DF
:1027E00002008000808080800406060601FF2070C1
:1027F000A0A070200507070600FF304840F04040C9
:10280000F8050505060000A8508850A8050606062C
:1028100000008850F820F8200107070602FF80809A
:1028200080008080800407070601FF708060906050
:1028300010E0030101060105A00607070600007865
:102840008494A494847803050506010160A06000C7
:10285000E00505050600002850A0502804030306E3
:102860000100F01010040101060102F0060707063E
:1028700000007884B4A4A48478040101060105F062
:102880000403030601026090600507070600FF20AD
:1028900020F8202000F803050506010140A0204093
:1028A000E0030505060101C0204020C00202020627
:1028B000020440800405050601FF9090B0D0800519
:1028C000060606000078E8E86828280101010602EB
:1028D00002800202020602FE408003050506010195
:1028E00040C04040E003050506010140A04000E073
:1028F000050505060000A0502850A00508080600A0
:10290000FF40C04050703078100508080600FF40B6
:10291000C04050680810380508080600FFC0204075
:1029200030F0307810040707060100200020608096
:102930009060050707060000402020507088880539
:10294000070706000010202050708888050707063A
:1029500000002050205070888805070706000028D6
:10296000502050708888050707060000500020504E
:10297000708888050707060000205020507088885E
:1029800005060606000078A0F0A0A0B80408080616
:1029900001FE6090808090602040040707060100DF
:1029A0004020F080E080F00407070601002040F09E
:1029B00080E080F00407070601002050F080E080EE
:1029C000F00407070601005000F080E080F00307E4
:1029D000070601008040E0404040E0030707060191
:1029E000002040E0404040E003070706010040A00F
:1029F000E0404040E0030707060100A000E040403F
:102A000040E00506060600007048E84848700407E4
:102A10000706010050A090D0B0909004070706016F
:102A2000004020609090906004070706010020405D
:102A3000609090906004070706010020506090901D
:102A4000906004070706010050A060909090600419
:102A5000070706010050006090909060050505068C
:102A6000000088502050880408080601FF1070B04C
:102A7000B0D0D0E08004070706010040209090907D
:102A80009060040707060100204090909090600439
:102A900007070601002050909090906004070706F9
:102AA000010050009090909060050707060000100C
:102AB00020885020202004060606010080E0909027
:102AC000E0800406060601006090A0A090A0040724
:102AD000070601004020007090907004070706016F
:102AE00000204000709090700407070601002050FD
:102AF000007090907004070706010050A0007090CD
:102B00009070040606060100500070909070040753
:102B10000706010020502070909070050404060004
:102B20000070A8B0780406060601FE708080702050
:102B30004004070706010040200060B0C070040791
:102B40000706010020400060B0C0700407070601BE
:102B50000020500060B0C07004060606010050005E
:102B600060B0C070030707060100804000C040400D
:102B7000E0030707060100204000C04040E00307D3
:102B80000706010040A000C04040E0030606060121
:102B900000A000C04040E0040707060100306010BC
:102BA0007090906004070706010050A000E090902C
:102BB0009004070706010040200060909060040721
:102BC000070601002040006090906004070706019E
:102BD000002050006090906004070706010050A09C
:102BE000006090906004060606010050006090901E
:102BF000600505050600002000F800200404040616
:102C0000010070B0D0E004070706010040200090EA
:102C1000909070040707060100204000909090708B
:102C200004070706010020500090909070040606EB
:102C30000601005000909090700409090601FE20E2
:102C400040009090907090600408080601FE80801B
:102C5000E09090E080800408080601FE500090900B
:102C60009070906000000000000000000000000074
:102C70007FFFE00000000000000000000000007086
:102C800000E000000000000000000000000061F80B
:102C90006000000000000000000000000041F8207B
:102CA00000000000000000000000000040F02000D4
:102CB0000000000000000000000000406020000054
:102CC000000000000000000000005801A07F80000C
:102CD0003FC0003FC0004104005C63A0FBC000791E
:102CE000E00079E0002082005EF7A0F3C00076E00B
:102CF0000076E0002082005EF7A0EBC0007EE000DE
:102D00007EE0004104005C63A07B80003DC0003990
:102D1000C0008208005801A07B80003BC0003EC07C
:102D200001041000406020FBC00077E00076E00165
:102D300004100040F020FBC00070E00079E0008249
:102D4000080041F820FFC0007FE0007FE000410460
:102D50000061F8603F00001F80001F80000000003D
:102D60007000E01E00000F00000F0001FFFF807FD9
:102D7000FFE00C0000060000060001FFFF800000DD
:102D8000000000000000000000000000007FFFE0E5
:102D90000000000000000000000000007000E000E3
:102DA0000000000000000000000000630C60000054
:102DB00000000000000000000000470E200000009E
:102DC0000000000000000000004F0F200000000085
:102DD00000000000000000005F0FA00000000000E5
:102DE000000000000000005E07A07F80003FC000E0
:102DF0003FC000410400406020FBC00079E0007942
:102E0000E00020820040F020F3C00076E00076E091
:102E10000020820040F020EBC0007EE0007EE00059
:102E20004104004060207B80003DC00039C000822A
:102E300008005E07A07B80003BC0003EC00104107C
:102E4000005F0FA0FBC00077E00076E001041000F7
:102E50004F0F20FBC00070E00079E00082080047BF
:102E60000E20FFC0007FE0007FE000410400630C03
:102E7000603F00001F80001F80000000007000E025
:102E80001E00000F00000F0001FFFF807FFFE00C1D
:102E90000000060000060001FFFF800000000000A7
:102EA0000000000000000000000000000000000022
:102EB000003F800000000000003F80000000000094
:102EC000003F800000000000E03F80600000000143
:102ED000F07FC0F800000007FFFFF9FC00000007CA
:102EE000FFFFFFFC00000007FFFFFFFC00000007E2
:102EF000FFFFFFFC00000007FF803FFC0000000711
:102F0000FC0007FC0000000FF07FC1FE0000001F66
:102F1000C3FFF87F000007FF8FFFFE3FFC0007FFA5
:102F20001FFFFF1FFC000FFE3FFFFF8FFE000FFC87
:102F3000FFFFFFE7FE001FF8FFFFFFE3FF000FF1B9
:102F4000FFFFFFF1FE0007F3FFFFFFF9FC0003E7BF
:102F5000FFFFFFFCF80003E7FFFFFFFCF80007CFCF
:102F6000FFFFFFFC7C0007CFFFFFFFFE7C0007CFC9
:102F7000FFE0FFFE7C000FCFFFC07FFE7C007F9F45
:102F8000FF803FFF3FC07F9FFF001FFF3FC07F9F2D
:102F9000FF001FFF3FC07F9FFF001FFF3FC07F9FBD
:102FA000FF001FFF3FC07F9FFF001FFF3FC07F9FAD
:102FB000FF803FFF3FC00FCFFFC07FFE7E0007CFE7
:102FC000FFE0FFFE7C0007CFFFFFFFFE7C0007CF86
:102FD000FFFFFFFE7C0003E7FFFFFFFCF80003E7B5
:102FE000FFFFFFFCF80007F3FFFFFFF9FC000FF104
:102FF000FFFFFFF1FE001FF9FFFFFFF3FE000FFCD4
:10300000FFFFFFE7FE000FFE7FFFFFCFFE0007FF81
:103010001FFFFF1FFC0007FF8FFFFE3FFC00001F8C
:10302000C3FFF87F0000000FF07FC1FE000000002A
:103030000000000000000000000000000000000090
:1030400000000000000000007FFFFFC00000000043
:103050003FFFFF80000000000FFFFE0000000000A7
:1030600003FFFC000000000001FFF0000000000072
:10307000007FE00000000000003F80000000000032
:10308000000E00000000000000040000000000002E
:103090000000000000000000000000000000000030
:1030A0000000000000000000000000000000000020
:1030B0000000000000000000000000000000000010
:1030C0000000000000000000000000000000000000
:1030D00000000000000000000000000000091200D5
:1030E000FC0A01E803D720FFFD0EFD0BFD000000E8
:1030F00009000E010B0B0904008080808080808015
:103100000000808004040409030790909090080A4E
:103110000A090000242424FF2424FF242424070B6C
:103120000B0901FF107C929050381412927C10070A
:103130000A0A09010042A4A4481010244A4A84073C
:103140000A0A09010060909090606294889462017C
:10315000040409040780808080030C0C0903FF200D
:103160004040808080808080404020030C0C090318
:10317000FF8040402020202020204040800707077B
:1031800009010310925438549210070707090101EE
:10319000101010FE1010100204040904FEC0C040FC
:1031A00080070101090104FE020202090400C0C0F7
:1031B000070A0A0901000204040810102040408098
:1031C000070A0A09010038448282828282824438D6
:1031D000070A0A090100103050901010101010FE5C
:1031E000070A0A090100384482020408102040FE40
:1031F000070A0A090100FE02040818040202847882
:10320000070A0A090100040C14244484FE0404047F
:10321000070A0A090100FE808080F804020284780F
:10322000070A0A0901003C408080B8C48282443801
:10323000070A0A090100FE02040408081010101011
:10324000070A0A090100384482443844828244381B
:10325000070A0A09010038448282463A02020478C9
:10326000020707090400C0C0000000C0C00209092D
:103270000904FEC0C0000000C0C040800509090963
:1032800002000810204080402010080704040901B3
:1032900002FE0000FE050909090200804020100816
:1032A00010204080070A0A090100384482020408FD
:1032B00010100010070A0A09010038449AAAAAAAA5
:1032C000AA9C403C070A0A09010010282828447CCF
:1032D00044828282070A0A090100F8848284F88401
:1032E000828284F8070A0A0901003C4280808080BB
:1032F0008080423C070A0A090100F88482828282A7
:10330000828284F8070A0A090100FE808080F88022
:10331000808080FE070A0A090100FE808080F88014
:1033200080808080070A0A09010038448280808EEC
:1033300082824438070A0A09010082828282FE8260
:1033400082828282050A0A090200F82020202020B9
:10335000202020F8070A0A0901003E08080808088A
:1033600008888870070A0A09010082848890A0D022
:1033700088848282070A0A09010080808080808018
:10338000808080FE070A0A0901008282C6AA928212
:1033900082828282070A0A0901008282C2A2928A7C
:1033A00086828282070A0A0901007C8282828282E6
:1033B0008282827C070A0A090100F884828284F8EA
:1033C00080808080080B0B0901FF38448282828252
:1033D000828A443A01070A0A090100F88482828439
:1033E000F890888482070A0A0901007C8280807C28
:1033F000020202827C070A0A090100FE1010101066
:103400001010101010070A0A0901008282828282BD
:103410008282824438070A0A090100828282444477
:103420004428282810070A0A090100828282829211
:10343000929292AA44070A0A090100828244281043
:103440001028448282070A0A090100828244281057
:103450001010101010070A0A090100FE02040810DB
:1034600020408080FE040C0C0903FFF080808080E7
:10347000808080808080F0070A0A09010080404037
:1034800020101008040402040C0C0902FFF01010B4
:103490001010101010101010F0070404090106108D
:1034A0002844820801010900FFFF03030309030AFE
:1034B0008040200707070901007C02027E82867A8D
:1034C000070A0A090100808080BCC2828282C2BCD5
:1034D0000707070901007C82808080827C070A0A36
:1034E0000901000202027A86828282867A07070731
:1034F0000901007C8282FE80827C070A0A090100A1
:103500001C22222020F820202020070A0A0901FD81
:103510007A84848478807C82827C070A0A0901008C
:10352000808080BCC28282828282050A0A090200EF
:10353000600000E02020202020F8050D0D0902FD8C
:1035400018000038080808080808888870070A0A60
:10355000090100808080848890B0C88482050A0AAE
:10356000090200E02020202020202020F807070763
:10357000090100EC929292929282070707090100DA
:10358000BCC282828282820707070901007C828294
:103590008282827C070A0A0901FDB8C4828282C441
:1035A000B8808080070A0A0901FD3A468282824675
:1035B0003A0202020707070901009C6242404040AC
:1035C000400707070901007C82807C02827C070992
:1035D000090901002020FC20202020221C070707C9
:1035E0000901008282828282867A07070709010028
:1035F000828244442828100707070901008282922A
:103600009292AA440707070901008244281028441F
:1036100082070A0A0901FD42422424241818109046
:1036200060070707090100FE0408102040FE060B92
:103630000B0902001C20202020C0202020201C017B
:103640000C0C0904FF8080808080808080808080D6
:1036500080060B0B090100E0101010100C10101068
:1036600010E007030309010762928CFFFFFFFFFFD1
:10367000FFFFFFFFFFFFFFFFFFFFFFFFFFFFFFFF5A
:10368000FFFFFFFFFFFFFFFFFFFFFFFF000000093D
:10369000000E010B0B0904008080000080808080F8
:1036A00080808006080809010008789490A0A4781A
:1036B00040070A0A0901001C222020F8202060A2ED
:1036C0005C070606090103827C44447C82070A0ADF
:1036D000090100828244287C107C101010010B0B21
:1036E0000904FF8080808080008080808080040BBF
:1036F0000B0902FF609080609090906010906003D2
:10370000020209030BA0A00809090900013C429923
:10371000A5A1A599423C0507070901036090709097
:103720007800F807080809010112244890904824FD
:1037300012060404090102FC040404050101090243
:1037400004F80809090900013C42B9A5BDA9A54230
:103750003C060101090109FC040404090306609008
:103760009060070909090101101010FE10101000E7
:10377000FE0406060901046090106080F00406064D
:1037800009010460902010906003030309030A20DC
:1037900040800709090901FE8282828282C6BA80BE
:1037A00080070A0A0901007E8A8A8A7A0A0A0A0AB6
:1037B0000A020202090404C0C00403030902FD2036
:1037C000906003060609010440C0404040E0050641
:1037D000060901047088887000F8070808090101CB
:1037E0009048241212244890070A0A09010040C098
:1037F000404042E60A121A06070A0A09010040C0C0
:1038000040404CF2020C101E070A0A0901006090A9
:10381000201092660A121A06070A0A09010010000F
:10382000101020408082827C070E0E0901002010BB
:10383000080010282828447C44828282070E0E0942
:1038400001000810200010282828447C448282822D
:10385000070E0E0901001028440010282828447C77
:1038600044828282070D0D09010034580010282877
:1038700028447C44828282070D0D0901002828001B
:1038800010282828447C44828282070E0E090100F9
:103890001028281010282828447C44828282070A95
:1038A0000A0901001E2828284E784888888E070DAE
:1038B0000D0901FD3C42808080808080423C0824CC
:1038C00018070E0E09010020100800FE808080F805
:1038D00080808080FE070E0E09010008102000FE87
:1038E000808080F880808080FE070E0E0901001025
:1038F000284400FE808080F880808080FE070D0DC7
:10390000090100282800FE808080F880808080FEE9
:10391000050E0E09020040201000F8202020202073
:10392000202020F8050E0E09020010204000F8208B
:1039300020202020202020F8050E0E090200205013
:103940008800F82020202020202020F8050D0D09D7
:103950000200505000F82020202020202020F807CE
:103960000A0A09010078444242F24242424478077E
:103970000D0D0901003458008282C2A2928A86820B
:103980008282070E0E090100201008007C828282CC
:1039900082828282827C070E0E09010008102000BC
:1039A0007C82828282828282827C070E0E090100E2
:1039B000102844007C82828282828282827C070D6F
:1039C0000D0901003458007C8282828282828282C8
:1039D0007C070D0D0901002828007C8282828282EA
:1039E0008282827C0707070901018244281028444B
:1039F00082070C0C0901FF027C868A8A9292A2A29D
:103A0000C27C80070E0E090100201008008282820D
:103A100082828282824438070E0E0901000810203B
:103A20000082828282828282824438070E0E0901DD
:103A30000010284400828282828282828244380777
:103A40000D0D0901002828008282828282828282F2
:103A50004438070E0E090100081020008282442815
:103A6000101010101010070A0A0901008080FC8253
:103A70008282FC808080060A0A090100384444489A
:103A8000D04844444458070B0B090100201008009B
:103A90007C02027E82867A070B0B09010008102047
:103AA000007C02027E82867A070B0B090100102837
:103AB00044007C02027E82867A070A0A09010034E9
:103AC00058007C02027E82867A070A0A09010028D1
:103AD00028007C02027E82867A070C0C0901001005
:103AE000282810007C02027E82867A0707070901D7
:103AF000006C12127E90926C070A0A0901FD7C820A
:103B0000808080827C104830070B0B090100201058
:103B100008007C8282FE80827C070B0B0901000872
:103B20001020007C8282FE80827C070B0B09010042
:103B3000102844007C8282FE80827C070A0A0901E8
:103B4000002828007C8282FE80827C050C0C090201
:103B5000008040200000E02020202020F8050C0CF0
:103B60000902001020400000E02020202020F8055D
:103B70000C0C0902002050880000E02020202020AA
:103B8000F8050B0B09020050500000E02020202017
:103B900020F8070B0B090100483050083C44828292
:103BA000824438070A0A090100345800BCC28282E4
:103BB000828282070B0B090100201008007C8282A0
:103BC0008282827C070B0B090100081020007C8296
:103BD000828282827C070B0B090100102844007C42
:103BE00082828282827C070A0A0901003458007CA2
:103BF00082828282827C070A0A0901002828007CCE
:103C000082828282827C0709090901001038100033
:103C1000FE001038100709090901FF027C8A8A9208
:103C2000A2A27C80070B0B090100402010008282B9
:103C3000828282867A070B0B09010008102000821D
:103C400082828282867A070B0B09010010284400C9
:103C50008282828282867A070A0A09010028280065
:103C60008282828282867A070E0E0901FD04081084
:103C70000042422424241818109060070B0B0901FD
:103C8000FE8080B8C4828282C4B88080070D0D098E
:103C900001FD2424004242242424181810906001BD
:103CA000050800FF060121023520FFFF07FF06FF80
:103CB000090050221656808080800080153353A062
:103CC000A0A00257575050F850F8505002575720B4
:103CD00070A07028702013355580A040A0200247A6
:103CE0005740A0A040A0A0502513538080801226EA
:103CF0005640808080804012265680404040408060
:103D00000245559060F060900255552020F8202023
:103D1000113353604080044151F011335340E0406F
:103D200002465610102040808012365640A0A0A0B7
:103D3000A04012365640C0404040E00246566090D7
:103D4000106080F0024656F02060109060024656E7
:103D50002060A0F02020024656F080E01090600223
:103D600046566080E0909060024656F01020204059
:103D70004002465660906090906002465660909077
:103D8000701060122555C0C000C0C011365660606A
:103D9000006040801236562040808040200343530C
:103DA000F000F012365680402020408012365640F7
:103DB000A020400040015858304898A8A8904030B2
:103DC000024656609090F09090024656E090E09047
:103DD00090E0024656609080809060024656E090E7
:103DE000909090E0024656F080E08080F0024656C7
:103DF000F080E0808080024656609080B090600243
:103E000046569090F0909090123656E040404040D8
:103E1000E002465670202020A04002465690A0C0E6
:103E2000A0A0900246568080808080F00246569086
:103E3000F0F090909002465690D0F0B0B0900246CC
:103E400056609090909060024656E09090E080809E
:103E5000014757609090D0B06010024656E09090B5
:103E6000E09090024656609040209060123656E0F6
:103E700040404040400246569090909090600246EC
:103E800056909090906060024656909090F0F0901E
:103E90000246569090606090900256568888502056
:103EA0002020024656F010204080F0123656E08066
:103EB000808080E0024656808040201010123656E6
:103EC000E020202020E016325240A0014151F0169F
:103ED0002252804002445470909070024656808076
:103EE000E09090E0123454608080600246561010DA
:103EF0007090907002445460B0C0600246562050EA
:103F000040E0404001455560907010600246568088
:103F100080E09090901236564000C04040E011374B
:103F2000572000202020A040024656808090E0903C
:103F300090123656C040404040E0025454D0A8A8E9
:103F4000A8024454E0909090024454609090600124
:103F50004555E090E080800145557090701010024A
:103F60004454A0D0808012345460C020C002465611
:103F70004040E040502002445490909070123454DD
:103F8000A0A0A04002545488A8A8500244549060B5
:103F900060900145559090709060024454F020402C
:103FA000F0024757304020C0204030221656808013
:103FB00080808080024757C02040304020C00642A9
:103FC0005250A0FFFFFFFFFFFFFFFFFFFFFFFFFFBC
:103FD000FFFFFFFFFFFFFFFFFFFFFFFFFFFFFFFFF1
:103FE000FFFFFFFF0900502216568000808080806E
:103FF0000146562070A0A070200246562050E04096
:1040000050A002555588705070880256568850F856
:1040100020F8202217578080800080808002475738
:104020007080E0907010E0173151A002565670A8D1
:10403000C8C8A87014355560A06000E00343535011
:10404000A050123353E02020143151E00256567034
:10405000E8D8E8D870173151E015335340A040122A
:10406000355540E04000E014355540A02040E014B4
:104070003555C020C020C0162252408001455590C1
:104080009090E08002565678E8E86828282411517C
:1040900080112252408014355540C04040E0143514
:1040A0005540A04000E0034353A050A00247578072
:1040B0008080A060F0200247578080A0D010207040
:1040C00002475780408060A0F020123656400040E2
:1040D00080A04002475740206090F09090024757E0
:1040E00020406090F0909002475760906090F09070
:1040F0009002475750A06090F09090024757900070
:104100006090F0909002475760906090F09090021D
:10411000465670A0A0F0A0B00147576090808090F4
:1041200060400247574020F080E080F0024757206F
:1041300040F080E080F00247576090F080E080F02F
:104140000247579000F080E080F01237578040E03F
:10415000404040E01237572040E0404040E01237F6
:104160005740A0E0404040E0123757A000E04040F8
:1041700040E00256567048E848487002475750A041
:1041800090D0B0909002475740206090909060028D
:104190004757204060909090600247576090609031
:1041A00090906002475750A06090909060024757EF
:1041B00090006090909060123353A040A002465649
:1041C00070B0B0D0D0E002475740209090909060FF
:1041D000024757204090909090600247576090901F
:1041E0009090906002475790009090909060025796
:1041F000571020885020202002465680E09090E002
:10420000800246566090A0A090A002475740200030
:104210007090907002475720400070909070024755
:10422000572050007090907002475750A000709037
:104230009070024656500070909070024757609000
:104240006070909070025454F068B07811355560E9
:104250008080604002475740200060B0C060024745
:104260005720400060B0C06002475760900060B0C7
:10427000C060024656500060B0C0601237578040A0
:1042800000C04040E0123757204000C04040E012DC
:10429000375740A000C04040E0123656A000C04052
:1042A00040E0024757A040A010709060024757506E
:1042B000A000E090909002475740200060909060EE
:1042C000024757204000609090600247576090007E
:1042D0006090906002475750A00060909060024646
:1042E000569000609090601235554000E00040020A
:1042F000445470B0D0E00247574020009090907036
:1043000002475720400090909070024757609000FD
:10431000909090700246569000909090700148588E
:1043200020400090907090600147578080E090E0BE
:1043300080800147579000909070906000000A0BB9
:1043400002090C0D0E080703040100000000000024
:10435000000000000000000000000000000000005D
:10436000000000000000000012111000000000001A
:10437000000000000000000000000000000000003D
:10438000000001021020200808102040102040806A
:104390000201020108040201010204081020408009
:1043A0008040201008040201800402018040201097
:1043B00008040201080402010102040810204080E0
:1043C00001020408102040800505050507050808BE
:1043D0000808020202020A0A08080404040401018F
:1043E00001010101010103030303030303030407A4
:1043F00007070C0C0C0C0C0C0C0C0202020206063B
:104400000606060606060B0B0B0B0B0B0B0B000030
:104410002200250028002B002E003100340002016C
:104420000000050108010B01000021002400270005
:104430002A002D00300033000101000004010701B3
:104440000A01024E414E494E495459494E46CDCC7F
:10445000CC3D0AD7233C17B7D13877CC2B32959572
:10446000E6241FB14F0A000020410000C84200406E
:104470001C4620BCBE4CCA1B0E5AAEC59D743B29BF
:104480000148B1CE054811241FBECFEFD1E2DEBFF7
:10449000CDBF00E00CBF14E0A0E0B2E0ECE8FCEC23
:1044A00001E00BBF02C007900D92A236B107D9F709
:1044B00023E1A2E6B4E001C01D92AB3FB207E1F7F1
:1044C00014E4C4E8D4E400E006C022970109FE0128
:1044D0000BBF0E940CE0CE37D10780E00807A9F798
:1044E0000E94F0DA0C9435E60C940000EF92FF92F3
:1044F0000F931F93CF93DF931F92CDB7DEB78C013D
:104500007B01460FF70161917F01F8018081918164
:1045100049830E947EE5F801808191810196918313
:10452000808349814E11EECF0F90DF91CF911F9183
:104530000F91FF90EF900895EF92FF920F931F93CA
:10454000CF93DF931F92CDB7DEB78C017B01460F6F
:10455000F8018081918149830E9476E5F70181937A
:104560007F01F80180819181019691838083498147
:104570004E11EECF0F90DF91CF911F910F91FF90D1
:10458000EF9008950F931F93CF93DF93CDB7DEB7CE
:104590002A970FB6F894DEBF0FBECDBF80E390E33D
:1045A000A0E3B0E08D839E83AF83B88704E610E07C
:1045B0001A87098744E0BE016B5F7F4FCE010996E1
:1045C00095DF40E161E670E1CE0109968FDF40E1C1
:1045D00061E770E1CE01099689DF40E161E570E1B4
:1045E000CE01099683DF44E069E470E1CE010996CB
:1045F0007DDF44E065E470E1CE01099677DF44E0B9
:104600006DE470E1CE01099671DF44E065E370E18D
:10461000CE0109966BDF44E061E870E1CE010996B6
:1046200065DF44E061E470E1CE0109965FDF44E0BC
:104630006DE370E1CE01099659DF44E069E370E172
:10464000CE01099653DF4CE06FEF76E0CE0109967C
:104650004DDF44E064E974E0CE01099647DF44E0B1
:1046600066E072E0CE01099641DF42E06FEB73E154
:10467000CE0109963BDF42E06DEB73E1CE01099676
:1046800035DF42E06BEB73E1CE0109962FDF42E0AC
:1046900069EB73E1CE01099629DF42E067EB73E134
:1046A000CE01099623DF42E065EB73E1CE01099666
:1046B0001DDF42E063EB73E1CE01099617DF42E0B4
:1046C00061EB73E1CE01099611DF42E06FEA73E11D
:1046D000CE0109960BDF42E06DEA73E1CE01099647
:1046E00005DF42E06BEA73E1CE010996FFDE42E0AE
:1046F00069EA73E1CE010996F9DE42E067EA73E107
:10470000CE010996F3DE42E065EA73E1CE01099637
:10471000EDDE42E063EA73E1CE010996E7DE42E0B6
:1047200061EA73E1CE010996E1DE42E06FE973E1EF
:10473000CE010996DBDE42E06DE973E1CE01099618
:10474000D5DE44E06BE572E0CE010996CFDE44E0B1
:1047500067E572E0CE010996C9DE44E063E572E0E8
:10476000CE010996C3DE86E591E3A1E3B0E089833B
:104770009A83AB83BC831A87098744E0BE016F5FCD
:104780007F4FCE010996B2DEE4EDF1E084918823FB
:1047900041F09091C00095FFFCCF8093C600319608
:1047A000F5CFE4ECF1E08491882341F09091C000D2
:1047B00095FFFCCF8093C6003196F5CF8091C00065
:1047C00085FFFCCF8AE08093C6002A960FB6F89446
:1047D000DEBF0FBECDBFDF91CF911F910F91089526
:1047E000AF92BF92CF92DF92EF92FF920F931F93FF
:1047F000CF93DF93CDB7DEB7E0970FB6F894DEBF67
:104800000FBECDBF80E1E6E8F2E0DE0191960190B7
:104810000D928A95E1F780E1E6E9F2E0DE0151963A
:1048200001900D928A95E1F780E1E6EAF2E0DE017F
:10483000119601900D928A95E1F76E0181E2C80E02
:10484000D11C81E6E82E80E1F82E8E010F5E1F4F0D
:1048500061E770E1AE014F5F5F4F91E5A92E90E1F6
:10486000B92E20E030E0F60181919191A191B191B2
:104870006F01F70181939193A193B1937F01F801A7
:1048800081919191A191B1918F01FB0181939193BC
:10489000A193B193BF01FA0181919191A191B1913D
:1048A000AF01F50181939193A193B1935F012F5FC4
:1048B0003F4F24303105B9F60E94127480E090E039
:1048C000AAE7B4E48093491090934A10A0934B1048
:1048D000B0934C1080E090E0AAEFB4E480934510D0
:1048E00090934610A0934710B093481010924D102B
:1048F00010924E1010924F101092501080E29EE4D1
:10490000A0E0B0E08093811090938210A093831078
:10491000B093841010923510109236101092371008
:104920001092381080E090E0A0EAB0E4809341104B
:1049300090934210A0934310B09344104DEC5CEC64
:104940006CEC7EE340933D1050933E1060933F101B
:10495000709340108093391090933A10A0933B10BD
:10496000B0933C10109207071092080710920907A5
:1049700010920A071092030710920407109205077D
:10498000109206071092FF0610920007109201077E
:1049900010920207109294041092950410929604BB
:1049A000109297048DEC9CECACE4BEE3809306027D
:1049B00090930702A0930802B093090287ED90E05C
:1049C0009093C0138093BF138DE290E09093BE1339
:1049D0008093BD131092BC131092BB1380EF90E034
:1049E0009093BA138093B91386E490E09093B81330
:1049F0008093B7131092B6131092B51385EF90E021
:104A00009093B4138093B3131092B2131092B11316
:104A10001092B0131092AF1384EB90E09093AE130A
:104A20008093AD1388E290E09093AC138093AB1326
:104A30001092AA131092A91383EC95EFA0EAB1E4A7
:104A400080935B0290935C02A0935D02B0935E0240
:104A500066EF78E28CE99FE30E943E8860935702FC
:104A6000709358028093590290935A026DEC7CEC3B
:104A700082EC92E40E944A8860935302709354023D
:104A800080935502909356020E94ED7E80E090E064
:104A9000A0E8BFE380934F0290935002A09351028D
:104AA000B0935202E4EDF1E08491882341F09091BB
:104AB000C00095FFFCCF8093C6003196F5CFE8E8A3
:104AC000F1E08491882341F09091C00095FFFCCFE4
:104AD0008093C6003196F5CF8091C00085FFFCCF52
:104AE0008AE08093C600E0960FB6F894DEBF0FBE52
:104AF000CDBFDF91CF911F910F91FF90EF90DF908D
:104B0000CF90BF90AF900895CF93DF93CDB7DEB72E
:104B10002A970FB6F894DEBF0FBECDBF84E690E0B3
:104B20009A87898786E591E3A1E3B0E089839A8338
:104B3000AB83BC8344E0BE016B5F7F4FCE0109961F
:104B4000FBDC43E050E0BE016B5F7F4FCE0101967E
:104B50000E943DE3892B09F0F8C040E161E670E175
:104B6000CE010996E9DC40E161E770E1CE010996EA
:104B7000E3DC40E161E570E1CE010996DDDC0E94F5
:104B8000127444E069E470E1CE010996D5DC44E09A
:104B900065E470E1CE010996CFDC44E06DE470E19C
:104BA000CE010996C9DC44E065E370E1CE010996C7
:104BB000C3DC44E061E870E1CE010996BDDC44E06D
:104BC00061E470E1CE010996B7DC44E06DE370E189
:104BD000CE010996B1DC44E069E370E1CE010996AB
:104BE000ABDC4CE06FEF76E0CE010996A5DC44E04B
:104BF00064E974E0CE0109969FDC44E066E072E06F
:104C0000CE01099699DC42E06FEB73E1CE01099683
:104C100093DC42E06DEB73E1CE0109968DDC42E05E
:104C20006BEB73E1CE01099687DC42E069EB73E13F
:104C3000CE01099681DC42E067EB73E1CE01099673
:104C40007BDC42E065EB73E1CE01099675DC42E066
:104C500063EB73E1CE0109966FDC42E061EB73E137
:104C6000CE01099669DC42E06FEA73E1CE01099654
:104C700063DC42E06DEA73E1CE0109965DDC42E05F
:104C80006BEA73E1CE01099657DC42E069EA73E111
:104C9000CE01099651DC42E067EA73E1CE01099644
:104CA0004BDC42E065EA73E1CE01099645DC42E067
:104CB00063EA73E1CE0109963FDC42E061EA73E109
:104CC000CE01099639DC42E06FE973E1CE01099625
:104CD00033DC42E06DE973E1CE0109962DDC44E05E
:104CE0006BE572E0CE01099627DC44E067E572E0EF
:104CF000CE01099621DC44E063E572E0CE0109961D
:104D00001BDC0E94ED7EE4EDF1E08491882341F00C
:104D10009091C00095FFFCCF8093C6003196F5CFEF
:104D2000EAEAF1E08491882341F09091C00095FF78
:104D3000FCCF8093C6003196F5CF8091C00085FFEF
:104D4000FCCF8AE08093C60001C04ADD2A960FB6E8
:104D5000F894DEBF0FBECDBFDF91CF9108950F93C2
:104D60001F93CF93DF938C01C1E6D0E1F8016191ED
:104D70007191819191918F01299139914991599125
:104D80000E94ADDE0E9447DCF80164877587868744
:104D90009787F0E1C137DF0749F7DF91CF911F9186
:104DA0000F9108952F923F924F925F926F927F9250
:104DB0008F929F92AF92BF92CF92DF92EF92FF922B
:104DC0000F931F93CF93DF93CDB7DEB73C01CB0199
:104DD000BA0118012901F3016083718382839383EF
:104DE0000483158326833783C086D186E286F386C3
:104DF00084869586A686B78611E020E030E0A9017A
:104E00000E94D8DB811101C010E020E030E0A90150
:104E1000C201B1010E94D8DB882311F092E001C0E9
:104E200090E0192B20E030E0A901C701B6010E94F3
:104E3000D8DB882311F094E001C090E0192B20E02A
:104E400030E0A901C501B4010E94D8DB882311F02C
:104E500088E001C080E0182BF30111A3C301DF91AA
:104E6000CF911F910F91FF90EF90DF90CF90BF9067
:104E7000AF909F908F907F906F905F904F903F90FA
:104E80002F906DCF8F929F92AF92BF92CF92DF9271
:104E9000EF92FF920F931F93CF93DF93CDB7DEB7BF
:104EA000FC0110A27FDFDF91CF911F910F91FF9046
:104EB000EF90DF90CF90BF90AF909F908F9008952C
:104EC0000F931F93FC01DB0181E00D911D912D914A
:104ED0003C911397408151816281738104171507BA
:104EE000260737070CF080E014960D911D912D9147
:104EF0003C91179744815581668177810417150786
:104F0000260737070CF4826018960D911D912D919C
:104F10003C911B9740855185628573850417150761
:104F2000260737070CF484601C960D911D912D9176
:104F30003C911F974485558566857785041715072D
:104F4000260737070CF488601F910F9108950F937F
:104F50001F93FC01DB0181E00D911D912D913C918E
:104F600013974081518162817381041715072607C9
:104F7000370709F480E014960D911D912D913C9115
:104F80001797448155816681778104171507260795
:104F9000370709F0826018960D911D912D913C9173
:104FA0001B97408551856285738504171507260771
:104FB000370709F084601C960D911D912D913C914D
:104FC0001F9744855585668577850417150726073D
:104FD000370709F088601F910F9108952F923F9233
:104FE0004F925F926F927F928F929F92AF92BF92F9
:104FF000CF92DF92EF92FF920F931F93CF93DF93A5
:10500000CDB7DEB764970FB6F894DEBF0FBECDBF45
:105010003C012B011A013A8B298B1C8B0B8B0091C5
:105020000602109107022091080230910902409176
:105030009404509195046091960470919704812C8A
:10504000912C540175016401ADDEC30188DE20910D
:105050006110309162104091631050916410F20120
:1050600060817181828193810E94ADDE0E9447DC64
:1050700069837A838B839C832091651030916610BD
:105080004091671050916810F101608171818281B7
:1050900093810E94ADDE0E9447DC6D837E838F8307
:1050A00098872091691030916A1040916B1050914F
:1050B0006C10E989FA8960817181828193810E94F3
:1050C000ADDE0E9447DC69877A878B879C872091B9
:1050D0006D1030916E1040916F1050917010EB89EF
:1050E000FC8960817181828193810E94ADDE0E9482
:1050F00047DC6D877E878F87988BBE016F5F7F4F00
:1051000085E190E1DDDE982EBE016F5F7F4F85E186
:1051100090E11DDF882EF301F0A1F98BAF2EA924B9
:10512000A822F30181A18A2109F5882D8095F989AA
:105130008F2398208929F30180A364960FB6F894F1
:10514000DEBF0FBECDBFDF91CF911F910F91FF90BA
:10515000EF90DF90CF90BF90AF909F908F907F9017
:105160006F905F904F903F902F90089535E1E32E20
:1051700030E1F32E02E614E01301412C512CB12C46
:10518000C92CD12CC501042C02C0959587950A9491
:10519000E2F780FF39C0C601042C02C095958795BF
:1051A0000A94E2F7F10180FF0EC080899189A289FB
:1051B000B3899C01AD0166277727CB01621B730B76
:1051C000840B950B04C06089718982899389F701EA
:1051D0002081318142815381261B370B480B590BAB
:1051E00020833183428353830E947ADC9B01AC018C
:1051F000F80160817181828193810E94FFDAF80158
:105200006083718382839383FFEF4F1A5F0A24E0E8
:10521000E20EF11C0C5F1F4F34E0230E311C44E002
:105220004416510409F0AECF80CF1092940410922E
:10523000950410929604109297048DEC9CECACE4CB
:10524000BEE38093060290930702A0930802B093F6
:1052500009020895109294041092950410929604F5
:105260001092970410920602109207021092080200
:105270001092090208958F929F92AF92BF92CF929F
:10528000DF92EF92FF920F931F93812C912C540188
:10529000750164010DEC1CEC2CE43EE3B501A401A6
:1052A00082E794E0EFDD1F910F91FF90EF90DF9088
:1052B000CF90BF90AF909F908F9008951F920F92C4
:1052C0000FB60F9211240BB60F922F933F934F936B
:1052D0005F936F938F939F93EF93FF936091C600BB
:1052E0002091190530911A05C90101968F779927E8
:1052F00040911B0550911C058417950741F0F90159
:10530000E756FB4F608390931A0580931905FF9130
:10531000EF919F918F916F915F914F913F912F915D
:105320000F900BBE0F900FBE0F901F9018959A0113
:10533000AB01211581EE38074105510549F182E0A5
:105340008093C00060E079E08DE390E00E94CBDFC5
:105350002150310941095109CA01B90122E030E067
:1053600040E050E00E94CBDF3093C5002093C400A2
:105370008091C10080618093C1008091C1008860EC
:105380008093C1008091C10080688093C10008951E
:105390001092C00020E130E0E7CF20911B05309152
:1053A0001C058091190590911A058217930771F0D9
:1053B000F901E756FB4F80812F5F3F4F2F7733274F
:1053C00030931C0520931B0590E008958FEF9FEF0D
:1053D000089580911B0590911C0590931A05809368
:1053E000190508954F925F926F927F928F929F92CC
:1053F000AF92BF92CF92DF92EF92FF920F931F93E3
:10540000CF93DF93CDB7DEB7A0970FB6F894DEBF8A
:105410000FBECDBF5C014115510561057105E9F471
:1054200020E030E040E350E060E070E0A0960FB68E
:10543000F894DEBF0FBECDBFDF91CF911F910F91CA
:10544000FF90EF90DF90CF90BF90AF909F908F90A4
:105450007F906F905F904F905BC08E010F5F1F4FEA
:10546000C12CD12C76014801422E512C612C712C7B
:105470008FEFC81AD80AE80AF80ACB01BA01A301CB
:1054800092010E94A9DFCA01F80161938F01A9016D
:10549000BC01411551056105710551F7F1E0CF1AC5
:1054A000D108E108F108F401EC0DFD1D80818A307E
:1054B00010F440E301C047E3480F552747FD5095DE
:1054C000652F752F20E030E0C50122D081E0C81A99
:1054D000D108E108F108EFEFCE16DE06EE06FE0673
:1054E00011F7A0960FB6F894DEBF0FBECDBFDF91C7
:1054F000CF911F910F91FF90EF90DF90CF90BF90D1
:10550000AF909F908F907F906F905F904F90089595
:105510002115310539F48091C00085FFFCCF4093FF
:10552000C60008952A30310509F41CC05BCFCF9323
:10553000DF93EC0120E030E04DE050E060E070E00F
:10554000E7DF20E030E04AE050E060E070E0CE01CC
:10555000DF91CF91DDCF9A01AB01662757FD6095B2
:10556000762FD6CFCF92DF92EF92FF92CF93DF9339
:10557000EC016A017B0177FF0FC020E030E04DE2D3
:1055800050E060E070E0C4DFF094E094D094C09408
:10559000C11CD11CE11CF11C2AE0B701A601CE01FF
:1055A000DF91CF91FF90EF90DF90CF901BCF21152F
:1055B000310539F48091C00085FFFCCF4093C600CF
:1055C000089510CF9A01462F50E060E070E0EFCFD1
:1055D000CF93DF93EC019A01AB0160E070E0E7DF6D
:1055E000CE01DF91CF91A3CF8F929F92AF92BF92C6
:1055F000CF92DF92EF92FF921F93CF93DF93EC0154
:105600006A017B01122F20E030E0A901C701B60139
:105610000E94D8DB87FF0CC020E030E04DE250E074
:1056200060E070E0CE0174DFF7FAF094F7F8F094E0
:10563000B12C60E070E080E09FE3B11641F020E023
:1056400030E040E251E40E94DFDBB394F6CF9B01EF
:10565000AC01C701B6010E94FFDA6B017C010E9418
:105660004CDC4B015C010E9478DC9B01AC01C70162
:10567000B6010E94FEDA6B017C012AE0B501A401AB
:10568000CE01B0DE112361F0ECE1F4E081918823DA
:1056900039F09091C00095FFFCCF8093C600F6CF03
:1056A000112319F120E030E040E251E4C701B601D6
:1056B0000E94ADDE6B017C010E9447DC4B01AA24F5
:1056C00097FCA094BA2CB501A401CE014BDFC50113
:1056D000B4010E947ADC9B01AC01C701B6010E94B3
:1056E000FEDA6B017C011150DBCFDF91CF911F916E
:1056F000FF90EF90DF90CF90BF90AF909F908F90F2
:10570000089572CFFC0165917591859194910895EA
:105710007F928F929F92AF92BF92CF92DF92EF9241
:10572000FF920F931F93CF93DF93EC018C01000F37
:10573000111F000F111FF801E55FF84F1082118251
:105740001282138227E137E043E157E06FE077E010
:105750008BE097E00E944073C8018E53994FD2DFCF
:105760009E012D54394F5901F90174904E01880C56
:10577000991C880C991C84010052194F20E030E0DC
:1057800040EC5FE30E94ADDE6B017C01672D772763
:1057900067FD7095872F972F0E947ADC9B01AC01E3
:1057A000C701B6010E94ADDEF80160837183828378
:1057B0009383F401ED5DFD4F60817181828193815E
:1057C00060930E0270930F02809310029093110267
:1057D00020E030E040E752E40E94DFDB32EFC32EEE
:1057E00036E0D32E7B018C012CEE36E048EE56E0FD
:1057F00064EE76E080EE96E00E94B2690E94C37C7F
:10580000F401E55FF84F108211821282138227E1C2
:1058100037E043E157E06FE077E08BE097E00E94EC
:10582000407394012A54394F4901C9016BDFF501D6
:1058300024918E01000F111F000F111F0052194FEC
:105840006B017C01F7FAF094F7F8F094622F772758
:1058500067FD7095872F972F0E947ADC9B01AC0122
:10586000C701B6010E94ADDEF801608371838283B7
:10587000938320E030E040E752E460910E027091A3
:105880000F0280911002909111020E94DFDB52EF13
:10589000C52E56E0D52E7B018C012CEE36E048EE6D
:1058A00056E064EE76E080EE96E00E94B2690E94D7
:1058B000C37CC40127DFF5011491CC0FDD1FCC0F91
:1058C000DD1F9E012052394F59019B01AC010E94FE
:1058D000FFDA6B017C01612F772767FD7095872FB9
:1058E000972F0E947ADC9B01AC01C701B6010E9490
:1058F000ADDEF5016083718382839383FE01ED5DEC
:10590000FD4F20E030E040E05FE360817181828103
:1059100093810E94ADDE60930E0270930F0280931C
:1059200010029093110220E030E040E752E40E9420
:10593000DFDBF2EFCF2EF6E0DF2E7B018C012CEEC9
:1059400036E048EE56E064EE76E080EE96E00E94A7
:10595000B2690E94C37CCE018253994FD3DE9E016F
:10596000255F384F79018E010150194FF8012081D0
:105970003181428153810E94FFDAF7016083718394
:1059800082839383CE018A51994FBCDE9E012D50B4
:10599000394F6901F80120813181428153810E9490
:1059A000FFDAF6016083718382839383CE0186528E
:1059B000994FA8DECD5EDD4FF80120813181428113
:1059C00053810E94FFDA688379838A839B83F7017E
:1059D00080819181A281B381F50180839183A2832B
:1059E000B38310920E0210920F02109210021092C6
:1059F0001102DF91CF911F910F91FF90EF90DF90F7
:105A0000CF90BF90AF909F908F907F900C94F57443
:105A1000FC012491222341F03091C00035FFFCCFDE
:105A20002093C6000196F4CF22E030E088E994E0AC
:105A300068CECF93DF931F921F92CDB7DEB78091D0
:105A4000F5139091F6139E012F5F3F4F009719F4C5
:105A50002B5F334102C0281B390B3A83298389818C
:105A60009A810F900F90DF91CF9108952091350585
:105A700030913605243031050CF06AC0409137056D
:105A80005091380560E6649F9001659F300D1124A8
:105A9000BC01C901815C9A4F0E9436E3E2EFF6E057
:105AA0008491882341F09091C00095FFFCCF8093B2
:105AB000C6003196F5CFE8EAF6E08491882341F0FC
:105AC0009091C00095FFFCCF8093C6003196F5CF32
:105AD000809137059091380520E6289FF001299F95
